:020000040800F2
:10000000000001202D0D0008110300081503000851
:10001000190300081D030008210300080000000068
:1000200000000000000000000000000025030008A0
:1000300029030008000000002D0300083103000818
:10004000750D0008750D0008750D0008750D000888
:10005000750D0008750D0008750D0008750D000878
:10006000750D0008750D0008750D0008750D000868
:10007000750D0008750D0008750D0008750D000858
:10008000750D0008750D0008750D0008750D000848
:10009000750D0008750D0008750D0008750D000838
:1000A000750D0008750D0008750D0008750D000828
:1000B000750D0008750D0008750D0008750D000818
:1000C000750D0008750D0008750D0008750D000808
:1000D000750D0008750D0008750D0008750D0008F8
:1000E000750D0008750D0008750D0008750D0008E8
:1000F000750D0008750D0008750D0008750D0008D8
:10010000750D0008750D0008750D0008750D0008C7
:10011000750D0008750D0008750D0008750D0008B7
:10012000750D0008750D0008750D0008750D0008A7
:1001300000000000000000000000000000000000BF
:1001400000000000000000000000000000000000AF
:10015000000000000000000000000000000000009F
:10016000000000000000000000000000000000008F
:10017000000000000000000000000000000000007F
:10018000000000000000000000000000000000006F
:10019000000000000000000000000000000000005F
:1001A000000000000000000000000000000000004F
:1001B000000000000000000000000000000000003F
:1001C000000000000000000000000000000000002F
:1001D000000000000000000000000000000000001F
:0401E0005FF8E0F1F3
:1001E40010B5054C237833B9044B13B10448AFF36D
:1001F40000800123237010BD0C00002000000000CB
:10020400D40D0008084B10B51BB108490848AFF3DA
:1002140000800848036803B910BD074B002BFBD0CE
:10022400BDE81040184700BF000000001000002087
:10023400D40D00080C0000200000000030B587B089
:10024400002402940394049405940E4B9A6942F09A
:1002540040029A619B6903F040030193019B0A4D9C
:1002640022466021284600F0FDFC6023029301230E
:10027400039304940223059302A9284600F0FAFB91
:1002840007B030BD001002400018014010B590B016
:100294002822002106A800F093FD00240194029472
:1002A4000394049405940223069301230A931023D0
:1002B4000B9306A800F0D4F80F230193029403943F
:1002C40004940594214601A800F01CFB10B010BD55
:1002D40008B500F077F8FFF7D9FFFFF7AFFF4FF449
:1002E400FA7000F093F8084C01224021204600F0F7
:1002F400B9FC4FF4FA7000F089F80022402120463E
:1003040000F0B0FCEBE700BF00180140704700BFED
:10031400FEE700BFFEE700BFFEE700BFFEE700BF49
:10032400704700BF704700BF704700BF08B500F0BA
:100334005BF808BD82B00E4B9A6942F001029A61E3
:100344009A6902F001020092009ADA6942F080523E
:10035400DA61DB6903F080530193019B054A53681A
:1003640023F0E06343F08063536002B0704700BF42
:10037400001002400000014010B504460E4B1878EE
:100384004FF47A73B3FBF0F30C4A1068B0FBF3F04C
:1003940000F0B2FC58B90F2C0BD8002221464FF0C4
:1003A400FF3000F077FC064B1C60002010BD0120DC
:1003B40010BD012010BD00BF040000200800002073
:1003C4000000002008B5074A136843F010031360C7
:1003D400032000F04DFC0020FFF7CEFFFFF7AAFF3B
:1003E400002008BD00200240034A1368034909782D
:1003F4000B441360704700BF280000200400002055
:10040400014B1868704700BF2800002038B5044627
:10041400FFF7F6FF0546B4F1FF3F02D0044B1B780B
:100424001C44FFF7EDFF401B8442FAD838BD00BFDF
:100434000400002082B0084B1B68084AA2FB032377
:100444005B0A00FB03F0019000BF019B5A1E01925E
:10045400002BF9D102B0704708000020D34D621080
:10046400002800F0EC8170B582B00446036813F0F4
:10047400010F6BD0A84B5B6803F00C03042B0AD06C
:10048400A54B5B6803F00C03082B0DD1A24B5B68F2
:1004940013F4803F08D0A04B1B6813F4003F55D0E1
:1004A4006368002B52D1CCE16368B3F5803F05D17A
:1004B400994A136843F48033136026E063B903F167
:1004C400804303F504331A6822F480321A601A68F0
:1004D40022F480221A6018E0B3F5A02F0CD103F1A6
:1004E4008043A3F53C331A6842F480221A601A68E8
:1004F40042F480321A6008E0874B1A6822F4803292
:100504001A601A6822F480221A6063687BB1FFF7CC
:1005140077FF054605E0FFF773FF401B642800F2F0
:1005240092817D4B1B6813F4003FF4D00EE0FFF77B
:1005340067FF054605E0FFF763FF401B642800F2F0
:100544008481754B1B6813F4003FF4D1236813F0C6
:10055400020F50D0704B5B6813F00C0F0AD06E4B37
:100564005B6803F00C03082B16D16B4B5B6813F428
:10057400803F11D1684B1B6813F0020F03D023692D
:10058400012B40F06481644A136823F0F803616925
:1005940043EAC10313602EE02369D3B101225F4B08
:1005A4001A60FFF72DFF054605E0FFF729FF401B02
:1005B400022800F24E81584B1B6813F0020FF4D04E
:1005C400554A136823F0F803616943EAC1031360D1
:1005D40011E00022514B1A60FFF712FF054605E0B7
:1005E400FFF70EFF401B022800F235814A4B1B68BF
:1005F40013F0020FF4D1236813F0080F29D0A36974
:10060400ABB10122464B1A60FFF7FAFE054605E03E
:10061400FFF7F6FE401B022800F21F813E4B5B6A87
:1006240013F0020FF4D00120FFF704FF11E00022C1
:100634003B4B1A60FFF7E4FE054605E0FFF7E0FEDA
:10064400401B022800F20B81334B5B6A13F0020F4C
:10065400F4D1236813F0040F00F08B802E4BDB6978
:1006640013F0805F0BD12C4BDA6942F08052DA61CF
:10067400DB6903F080530193019B012500E0002511
:10068400284B1B6813F4807F13D1264A136843F464
:1006940080731360FFF7B4FE064605E0FFF7B0FE73
:1006A400801B642800F2DD801E4B1B6813F4807FDE
:1006B400F4D0E368012B05D1174A136A43F0010310
:1006C400136222E063B903F1804303F504331A6A29
:1006D40022F001021A621A6A22F004021A6214E079
:1006E400052B09D10C4B1A6A42F004021A621A6AE9
:1006F40042F001021A6208E0074B1A6A22F0010272
:100704001A621A6A22F004021A62E368D3B1FFF78C
:1007140077FE064610E000BF00100240000042428F
:100724008004424200700040FFF76AFE801B41F2E1
:100734008833984200F29780544B1B6A13F0020FDF
:10074400F2D010E0FFF75CFE064607E0FFF758FE24
:10075400801B41F28833984200F287804B4B1B6A1E
:1007640013F0020FF2D125B1484AD36923F0805324
:10077400D361E369002B7AD0444A526802F00C0238
:10078400082A4CD0022B37D10022414B1A60FFF7C4
:1007940037FE054604E0FFF733FE401B022868D805
:1007A4003A4B1B6813F0007FF5D1236AB3F5803F01
:1007B40006D136494B6823F40032A36813434B60D7
:1007C4003248436823F47411236A626A13430B4367
:1007D400436001222E4B1A60FFF712FE044604E028
:1007E400FFF70EFE001B022845D8284B1B6813F0A8
:1007F400007FF5D0002047E00022254B1A60FFF768
:10080400FFFD044604E0FFF7FBFD001B022834D87B
:100814001E4B1B6813F0007FF5D1002034E0012B40
:100824002DD01A4B5B6803F48031226A914228D19F
:1008340003F47013626A934225D0012024E001205E
:100844007047012020E003201EE003201CE001206B
:100854001AE0032018E0032016E0032014E003202C
:1008640012E0032010E003200EE003200CE000203F
:100874000AE0032008E0032006E0032004E001204E
:1008840002E0012000E0002002B070BD0010024030
:100894006000424230B486B0164D02AC28686968E4
:1008A400AA68EB680FC42B8AADF80430124B5B685E
:1008B40003F00C02082A19D1C3F3834206A90A449F
:1008C40012F8100C13F4803F0CD00B4B5B68C3F38D
:1008D40040430B4413F8142C084B03FB00F0B0FB0B
:1008E400F2F004E0064B03FB00F000E0034806B01E
:1008F40030BC7047EC0D00080010024000127A0072
:1009040000093D00002800F09D8070B50446544B5A
:100914001B6803F007038B420BD2514A136823F080
:1009240007030B431360136803F00703994240F075
:100934008B80236813F0020F17D013F0040F04D038
:10094400484A536843F4E0635360236813F0080F84
:1009540004D0444A536843F46053536041484368A5
:1009640023F0F002A368134343600D46236813F099
:10097400010F2ED06268012A05D13A4B1B6813F48B
:10098400003F0DD162E0022A05D1364B1B6813F0FB
:10099400007F05D15CE0334B1B6813F0020F59D084
:1009A40030494B6823F0030313434B60FFF728FDE2
:1009B400064606E0FFF724FD801B41F28833984287
:1009C4004AD8284B5B6803F00C036268B3EB820FD0
:1009D400F0D1234B1B6803F007039D420AD2204A3F
:1009E400136823F007032B431360136803F0070312
:1009F4009D4233D1236813F0040F06D019494B6884
:100A040023F4E062E36813434B60236813F0080F98
:100A140007D0144A536823F46053216943EAC1039D
:100A24005360FFF737FF0F4B5B68C3F303130E4AA2
:100A3400D35CD8400D4B18600D4B1868FFF79CFC35
:100A4400002070BD01207047012070BD012070BDE1
:100A5400012070BD012070BD032070BD012070BD58
:100A64000020024000100240000E00080800002090
:100A740000000020F0B583B000263446DEE00122F9
:100A8400A24013409A4240F0D8804D68122D2DD0D8
:100A94000BD8022D27D003D85DB3012D1ED035E02D
:100AA400032D30D0112D1BD030E0684FBD4220D033
:100AB40008D8A7F58017BD421BD007F58037BD4283
:100AC40024D116E0624FBD4213D007F58037BD42F2
:100AD4000FD0A7F58017BD4218D10AE0CE6815E003
:100AE400CE68043612E0CE6808360FE0CE680C36C5
:100AF4000CE08D684DB1012D02D10261082605E09C
:100B04004261082602E0002600E00426FF2B01D8FB
:100B1400864601E000F1040EFF2B01D8A20002E09A
:100B2400A4F108029200DEF800700F25954027EA30
:100B3400050506FA02F22A43CEF800204A6812F0AC
:100B4400805F7AD0434A956945F0010595619269C1
:100B540002F001020192019AA708BD1C3E4A52F814
:100B640025E004F0030292000F2595402EEA050EBD
:100B74003A4DA84215D005F58065A84213D005F575
:100B84008065A84211D005F58065A8420FD005F50F
:100B94008065A8420DD005F58065A8420BD10525D6
:100BA4000AE0002508E0012506E0022504E003250B
:100BB40002E0042500E0062505FA02F24EEA0202EC
:100BC4000237254D45F827204A6812F4803F05D0A6
:100BD40005F580652A681A432A6004E0204D2A68D6
:100BE40022EA03022A604A6812F4003F04D01C4D32
:100BF4006A681A436A6004E0194D6A6822EA0302CB
:100C04006A604A6812F4801F04D0154DAA681A431A
:100C1400AA6004E0124DAA6822EA0302AA604A68A4
:100C240012F4001F04D00E4DEA681343EB6004E095
:100C34000B4DEA6822EA0303EB6001340B6833FAD4
:100C440004F27FF41CAF03B0F0BD00BF000021101C
:100C54000000311000100240000001400008014073
:100C6400000401400AB10161704709040161704741
:100C7400074AD36823F4E0631B041B0C000200F44E
:100C8400E060184340F0BF6040F40030D06070472B
:100C940000ED00E030B4164BDB68C3F30223C3F16C
:100CA4000704042C28BF04241D1D062D01D9DD1EB4
:100CB40000E00025012303FA04F4013C2140A9408B
:100CC400AB40013B1A400A43002808DB1201D2B2B0
:100CD40000F1604000F5614080F8002305E000F079
:100CE4000F001201D2B2034B1A5430BC704700BF3C
:100CF40000ED00E014ED00E00138B0F1807F0AD28D
:100D0400064B5860F021064A82F8231000209860B0
:100D140007221A6070470120704700BF10E000E00E
:100D240000ED00E0704700BF002103E00B4B5B586F
:100D3400435004310A480B4B42189A42F6D30A4AEC
:100D440002E0002342F8043B084B9A42F9D3FFF730
:100D5400E9FF00F00FF8FFF7BBFA7047180E000820
:100D6400000000200C0000200C0000202C000020BB
:100D7400FEE700000E4B70B51E460E4C0025E41A2B
:100D8400A410A54204D056F8253098470135F8E759
:100D940000F01EF8084B094C1E46E41AA410002566
:100DA400A54204D056F8253098470135F8E770BDC0
:100DB400100E0008100E0008100E0008140E000893
:100DC40003460244934202D003F8011BFAE770473A
:100DD400F8B500BFF8BC08BC9E467047F8B500BF24
:080DE400F8BC08BC9E467047F4
:100DEC0002030405060708090A0B0C0D0E0F101060
:100DFC0001020000000000000000000001020304DA
:040E0C0006070809C4
:040E100009020008CB
:040E1400E5010008EC
:0C0E180010000000010000000024F400A5
:0400000508000D2DB5
:00000001FF
